:020000040000FA
:1000000040C80720AD020000B5020000B7020000A2
:10001000B9020000BB020000BD02000000000000A9
:1000200000000000000000000000000015020000B9
:10003000C10200000000000059020000858D000090
:10004000C7020000ED8E0000358F0000F18F000028
:1000500041900000D1960000C70200007597000093
:1000600079980000C7020000492C0000C702000078
:10007000C7020000C7020000C7020000C70200005C
:10008000C7020000C7020000C70200003D270000B1
:10009000C7020000C7020000C7020000C70200003C
:1000A000C7020000C7020000C7020000C70200002C
:1000B000C7020000C7020000C7020000C70200001C
:1000C000C7020000C7020000C702000000F002F8EB
:1000D00000F090F80AA090E8000C82448344AAF152
:1000E0000107DA4501D100F085F8AFF2090EBAE850
:1000F0000F0013F0010F18BFFB1A43F0010318475C
:100100005C0501008C050100103A24BF78C878C155
:10011000FAD8520724BF30C830C144BF04680C600D
:10012000704700000023002400250026103A28BF55
:1001300078C1FBD8520728BF30C148BF0B60704759
:100140006E2900F0B283702900F00B8566290CF04F
:100150000D8065290CF00A8067290CF00780612961
:10016000AFF3008003681B0A28BF41F080016929B2
:1001700000F03E81642900F03B81752900F0388150
:100180006F2900F09984782900F0D784E92900F0DC
:100190003384E42900F03084F52900F02D84EF2920
:1001A00000F09684F82900F0D6840368DB0928BFA4
:1001B00041F08001632900F0B483732900F0B98312
:1001C000E32900F06787F32900F06C87002070476F
:1001D0001FB500F0B9FF0400002000210BF0B0FFB4
:1001E000401C6060002000210BF094FFE0601FBD08
:1001F00010B510BD00F07AFF1146FFF7E9FF0AF0D5
:10020000BBFE01F053F803B4FFF7F2FF03BC01F0AB
:100210009BF80000224B19680868B0E8F00F80F3E3
:100220000988BFF36F8F4FF0000080F311884EF004
:100230000D0E70470000000006480068006880F35B
:10024000088862B661B6BFF34F8FBFF36F8F00DFD0
:1002500000BF00BF08ED00E0EFF30980BFF36F8F30
:100260000F4B1A6820E9F00F106008B54FF0280016
:1002700080F31188BFF34F8FBFF36F8F0BF0AEFB8E
:100280004FF0000080F31188BDE808401968086845
:10029000B0E8F00F80F30988BFF36F8F704700BF9D
:1002A0003CC00720EFF305807047000009488047F5
:1002B00009480047FEE7FEE7FEE7FEE7FEE7FEE748
:1002C000FEE7FEE7FEE7FEE704480549034A054B63
:1002D00070470000B98D0000CD00000040C6072027
:1002E00040C8072040C6072002F0FF0343EA03226C
:1002F00042EA024200F024BA70477047FFFFFFFF56
:100300001CB50C46064B7B4469460090204600F025
:10031000E6FA04460020694600F0F4FA20461CBDC7
:10032000FB0500000FB41CB5084B06AA7B446946C8
:100330000090059800F0D3FA04460020694600F0CA
:10034000E1FA20461CBC5DF814FB0000D505000056
:1003500070B5044685690068C10601D5302600E005
:100360002026C00707D070BDD4E901213046904750
:10037000206A401C20626D1EF6D570BD70B5044623
:1003800085690078C00707D170BDD4E9012120201C
:100390009047206A401C20626D1EF6D570BD70B576
:1003A0000C460546012A05D02878800600D5EA6962
:1003B000002302E0012305E05B1C934202D2E05CD3
:1003C0000028F9D1A869E618C01AA861286A18445B
:1003D00028622846FFF7BCFF04E0D5E9012114F8A4
:1003E000010B9047B442F8D32846FFF7C7FF70BD12
:1003F0002DE9F0410646002410687529314616A5FE
:1004000010D000F0E7F9002802DA404213A507E017
:1004100031688A0701D512A502E0490704D511A564
:10042000012401E000F0DFF900210A2206F124078F
:1004300009E0B0FBF2FCB0FBF2F302FB1C00303031
:1004400078541846491C0028F3D123462A463046E2
:10045000BDE8F04100F0D0B9000000002D00000020
:100460002B000000200000002DE9F05F89460446C3
:100470004FF0000ADFF874B1FB44C0F820A020461A
:10048000E1688847002874D0252806D0D4E90121E6
:100490009047206A401C2062F1E700265F46204614
:1004A000E16888472028054607DB312D05D27819F9
:1004B00010F8200C08B10643F1E7B00701D526F08B
:1004C0000406C4F81CA00027C4F818A02A2D09D0DF
:1004D00028460AF049FD38B304EB8708303DC8F8D8
:1004E000185019E059F8041B204604EB870291616B
:1004F000E1688847012F054618D1E069002820DA15
:1005000026F020061DE0D8F8180000EB800005EB6F
:1005100040003038C8F818002046E1688847054692
:100520000AF022FD0028EED1012F0AD02E2D08D18D
:100530002046E16888477F1C0546022F46F02006CA
:10054000C4DBA069002803DA404246F00106A0613E
:10055000F00701D026F010066C2D0BD0682D09D0C5
:100560004C2D39D06A2D35D0742D35D07A2D33D01D
:1005700016E038E0E1682F4620468847B842054635
:1005800009D16C2F26D04FF48060E16806432046E5
:100590008847054604E06C2F1AD04FF4807006435C
:1005A0000DB3A5F14100192802D8203546F40066A4
:1005B0004A462946204626604E46FFF7C1FD80B1D7
:1005C00001280BD0F61D26F0070000F1080956E7B8
:1005D0004020E4E78020D8E70020D6E706F10409B0
:1005E0004DE7284652E7206ABDE8F09F1EEE000066
:1005F00030B505460B462A4613F8014B12F8010B9D
:1006000008B1A042F8D01CB1002802D06D1CF1E75F
:10061000284630BD40EA0103024630B59B0710D1A1
:100620004FF0013400E008C208C91D1B9D4315EAC4
:10063000C41FF8D013F0FF0102F8011B0DD01B0AF4
:10064000F8E711F8013B002B02F8013B05D011F847
:10065000013B002B02F8013BF3D130BD10B5431C28
:1006600002E010F8011B71B18107FAD14FF001329D
:1006700002C88C1A8C4314EAC211F9D0C01A0A06B7
:1006800003D0C01E10BDC01A10BD0A0401D0801EC8
:1006900010BD0902FCD0401E10BD421E12F8013FE1
:1006A000002BFBD111F8013B002B02F8013BF9D1E3
:1006B0007047032A40F2308010F0030C00F01580E0
:1006C00011F8013BBCF1020F624498BF11F801CB55
:1006D00000F8013B38BF11F8013BA2F1040298BFBA
:1006E00000F801CB38BF00F8013B11F0030300F024
:1006F0004382083AC0F0088051F8043B083A51F8A8
:1007000004CBA0E80810F5E7121D5CBF51F8043BCC
:1007100040F8043BAFF30080D20724BF11F8013B3F
:1007200011F801CB48BF11F8012B24BF00F8013BA1
:1007300000F801CB48BF00F8012B70474FF00002D2
:100740000429C0F0128010F0030C00F01B80CCF1E3
:10075000040CBCF1020F18BF00F8012BA8BF20F851
:10076000022BA1EB0C0100F00DB85FEAC17C24BFA5
:1007700000F8012B00F8012B48BF00F8012B70474F
:100780004FF0000200B5134694469646203922BF2A
:10079000A0E80C50A0E80C50B1F12001BFF4F7AF75
:1007A000090728BFA0E80C5048BF0CC05DF804EB57
:1007B000890028BF40F8042B08BF704748BF20F8C5
:1007C000022B11F0804F18BF00F8012B70477047C3
:1007D0007047704709684A0501D540B27047C9059E
:1007E000FCD500B2704709684A0501D5C0B2704710
:1007F000C905FCD580B270472DE9F0470D469946F2
:100800009246044600F124080168880604D5E06990
:1008100021F01001216000E00120A84201DD471B0A
:1008200000E00027A1697A1902EB0900081AA0610B
:100830002078C00602D42046FFF78AFD002608E093
:10084000D4E901211AF806009047206A401C761C62
:1008500020624E45F4DB2078C0060AD52046FFF71B
:1008600077FD06E0D4E9012130209047206A401C42
:100870002062381EA7F10107F4DC07E0D4E901216A
:1008800018F805009047206A401C2062281EA5F138
:100890000105F3DC2046FFF771FD2078000602D544
:1008A0000220BDE8F0870120FBE711680268006ABA
:1008B000530501D508700AE0D30501D5088006E08C
:1008C000130603D5C217C1E9000200E00860012049
:1008D0007047000001694A1C02610878704700B542
:1008E0008FB0CDE901310021059105497944CDE969
:1008F000031011466846FFF7B7FD0FB000BD0000BA
:10090000E5FFFFFF0A6802F8010B0A60704710B5A7
:10091000436913B1AFF3008001E0FFF740FD012010
:1009200010BD127800F124010A7000224A700122E1
:10093000EDE711684FF0FF32E9E700002DE9FF5FB6
:1009400015468A460446DFF8AC80F8440027D8E90B
:1009500000103E46CDE9001010E03AF816106A4645
:1009600002A800F0A3FB411C07D02178890603D51B
:10097000E269391891420DD80744761C2078800628
:1009800002D5E069B84205DDAE42E6DB3AF8160072
:100990000028E2D1A069C01BA0612046FFF7D8FC67
:1009A000D8E90010CDE90010002017E03AF818103F
:1009B0006A4602A800F07AFBB0F1FF3F81460BD0F7
:1009C00000250DF1080B05E0D4E901211BF8050015
:1009D00090476D1C4D45F7D308F10100B0428046A9
:1009E000E4DB206A384420622046FFF7C7FCBDE8FC
:1009F000FF9F00005EE900002DE9F0418046D21D16
:100A000022F007020025D2E90002F52915A614D02C
:100A1000011E72F1000106DA0023D0EB030063EB44
:100A2000020211A608E0D8F800108B0701D50FA626
:100A300002E0490701D50EA601251146002408F160
:100A4000240704E000F0CAF830323A55641C50EA3A
:100A50000102F7D12B46324621464046BDE8F0411F
:100A6000FFF7CABE000000002D0000002B000000B0
:100A70002000000030B4002100F1240408E002F05E
:100A80000705D208303542EA4372DB086554491C39
:100A900052EA0305F3D10468002310A2250708D504
:100AA00004F020040C4304D0C46901230CA2641E8A
:100AB000C46130BCFFF7A0BE10B5044621461068E3
:100AC000FFF791FE02462046BDE810400023D1E723
:100AD000D21D22F00701D1E90023CBE7000000007E
:100AE00030000000F0B40D460188090502D5214C04
:100AF0007C4402E01F4C7C440E34002100F12406AB
:100B000008E002F00F071209E75D42EA03721B09D1
:100B10007754491C52EA0307F3D1027800231207E5
:100B200004D5702D06D009B1022311342246F0BC41
:100B3000FFF762BE01231034F8E770B504460D4696
:100B400021461068FFF74FFE024629462046BDE8C1
:100B500070400023C6E7D21D22F00703D3E900232B
:100B6000C0E70368126843F0200303600823C361F1
:100B70000023B7E7C0E7000010B5203AC0F00B80B3
:100B8000B1E81850203AA0E81850B1E81850A0E891
:100B90001850BFF4F5AF5FEA027C24BFB1E81850EB
:100BA000A0E8185044BF18C918C0BDE810405FEA5B
:100BB000827C24BF51F8043B40F8043B08BF7047D7
:100BC000D20728BF31F8023B48BF11F8012B28BFDC
:100BD00020F8023B48BF00F8012B704730B5B0F158
:100BE0000A024FEA900E71F100034EEA817EB0EBEB
:100BF0000E0061EB91014FEA101E4EEA017E10EBF0
:100C00000E0041EB11114FEA102E4EEA016E10EB6F
:100C10000E0041EB11214FEA104E4EEA014E10EB4F
:100C20000E0041EB1141401841F100014FEAD000A4
:100C300040EA41704FEAD10110EB80054FEA810490
:100C400044EA907444EB01046D1944EB0404521B14
:100C5000A3414FF0000348BF0A3200D530BD401C0D
:100C600041F1000130BD70472DE9FF4F0C461E4693
:100C70004FF0FF378BB0D2E90001DDF860800A90B9
:100C80008A46C1F30A5505B93D46002108464FF092
:100C90000000BAF1000F00F4400005DA00EB80001C
:100CA0004FF4400101EA50004FEA9059B9F1010FA9
:100CB00000DDB9460A9850EA4A000ED044F61050BA
:100CC000A5F2FF3545432F14B8F1000F1ED0754231
:100CD000291E1EDDC9F100021CE0B8F1010F4FF022
:100CE000000001D0302103E0F24305E02154401C14
:100CF000B042FBDB30460022002121540B99C1F8A1
:100D00000880C1E900200FB0BDE8F08FBD1B6D1C4D
:100D1000DEE74A4600DA694206A800F059FA06AB57
:100D200093E8070003AB83E8070050460A9900F0F8
:100D300011FB8DE80700A0F500501F3800900398C4
:100D4000002D09DD42F21F014A46084403A9039021
:100D5000684600F070FD08E0A0F500504A461F38D4
:100D600003A90390684600F07AFD8DE807000004AF
:100D7000000C03D04FF0FF30410800E01046B8F1FE
:100D8000000F03D00022009215461EE0751E05D408
:100D9000FFF724FF303262556D1EF9D5B3460122AC
:100DA000084302D000227F1C04E02078302801D1C3
:100DB00000227F1E002A099786D01DE0112D07DA38
:100DC000FFF70CFF303262556D1C50EA0102F5D17D
:100DD000084302D00098C8B10EE00021681E05E06B
:100DE000235C625C63542254401E491C8142F7DB41
:100DF000AB46A81B401E0990002004F80B000B987E
:100E0000099AC0F80880C0E9002B7CE711264FF052
:100E1000000859E72DE9F04F88460446D21D22F01C
:100E2000070191B0D1E90001CDE90A010AF088F883
:100E300002460B98C00F01D02D2007E020688107E3
:100E400001D52B2002E0202101EAC000032A0990ED
:100E500001D0072A05DB03464146204600F078F919
:100E60000BE12078800601D5E06900E00620B8F1AA
:100E7000650F814606D0B8F1660F18D0B8F1670F3C
:100E800070D131E00020B9F1110F009001DB112386
:100E900001E009F101030AAA01A90CA8FFF7E4FE89
:100EA000DDE90C70002609F10105834647E00120C9
:100EB0004B4600904FF000470AAA01A90CA8FFF783
:100EC000D3FEDDE90DB00C995D46002610B909F19D
:100ED00001000D18B9EB050003D4C0F1FF3609F18C
:100EE0000105A5EB09002BE0B9F1010F01DA4FF084
:100EF00001090020B9F1110F0090484601DD1123CE
:100F000000E003460AAA01A90CA8FFF7ADFEDDE93F
:100F10000C704D4600268346207800070AD4AB4566
:100F200000DA5D4601A8012D04DD411911F8011C0C
:100F3000302907D04F4502DA17F1040F04DA0120F7
:100F400082460FE06D1EEEE7002F02DCED1B3E44F3
:100F500003E0781CA84200DD7D1CB81B00F1010AEB
:100F60004FF000472078000703D4AA4501DB4FF07B
:100F7000FF3A0021B7F1004F0DF143088DF84310FF
:100F800024D002202B23002F01DA7F422D230A21B7
:100F9000021EA0F1010000DC5FB197FBF1FC97FBA2
:100FA000F1F201FB1C7C17460CF1300C08F801CD66
:100FB000EEE7A8F1010003702188090501D545215C
:100FC00000E06521A0F1010800F8011C09980FA9B3
:100FD000A1EB0807FF1D00B10120411901EBEA70E8
:100FE000A1693844081A401EA0612078C00602D4C6
:100FF0002046FFF7ADF9099828B1D4E901219047BF
:10100000206A401C20622078C00622D52046FFF7C7
:101010009FF91EE0002E04DBB34502DD01A8805DD0
:1010200000E03020D4E901219047206A401C206272
:10103000761CAAF101005FEA000A0AD100F084F8E8
:10104000C0680168405CD4E901219047206A401CD7
:101050002062281EA5F10105DCDC07E0D4E90121AE
:1010600018F8010B9047206A401C2062381EA7F137
:101070000107F3DC2046FFF781F9032011B043E6B6
:1010800010B5436913B1AFF3008001E0FFF756FCE0
:10109000012010BD128800F1240182840022C28444
:1010A0000122EDE711684FF0FF32E9E770B516460F
:1010B0000C46054600F040F8036893F8010101284A
:1010C00006D0FF2C0FD8185D68B101202C7070BDC0
:1010D000D3F807013246214603F20713034428469A
:1010E000BDE8704018474FF0FF3070BD754600F006
:1010F000E7F8AE4605006946534620F007008546EE
:1011000018B020B5FFF7E0F8BDE820404FF000062A
:101110004FF000074FF000084FF0000B21F00701DF
:10112000AC46ACE8C009ACE8C009ACE8C009ACE822
:10113000C0098D467047000010B500F005F8001D8D
:1011400010BD00BFFDAF000000487047FCC5072080
:101150002DE9F0411F46044603260168072A01F4E1
:10116000006004DB08B116A505E016A503E008B190
:1011700015A500E015A521F010002060A069C01E93
:10118000A0610FB1401EA0612046FFF7E1F84FB10A
:10119000D4E9012138469047206A401C2062C01CD7
:1011A000206206E0206AFAE7D4E9012115F8010B74
:1011B0009047761EF8D22046FFF7E0F8BDE8F081B0
:1011C0004E414E006E616E00494E4600696E6600EB
:1011D0002DE9F047814616468AB0334878440DC859
:1011E0008DE80D0030487844801C03AC0DC884E8BD
:1011F0000D0041F69B300844372190FBF1F290FB43
:10120000F1F5A5F1800501FB12041B3C02D56442F7
:10121000012000E00020DFF890A080460027FA447B
:10122000AAF1BE0A0DE0E00709D03246684607EB96
:1012300047010AEB810100F012FB8DE80700641002
:101240007F1C002CEFD1184F7F44AC3F18E0E8071B
:1012500014D007EB04100DF1180A90E80E008AE88C
:101260000E00C068F04201D198190890324606A9D4
:1012700003A800F0F4FA03AB83E807006D10641CC8
:10128000002DE4D132466946B8F1000F03A802D020
:1012900000F0D1FA01E000F0E2FAC9E90001C9F872
:1012A00008200AB0BDE8F08778E1000010B50446D8
:1012B000AFF300802046BDE81040FEF7A4BF000059
:1012C00000487047DCC507204FF0013C50F8042B64
:1012D00051F8043B9A4221D1A2EB0C03934313EA49
:1012E000CC1317D150F8042B51F8043B9A4215D176
:1012F000A2EB0C03934313EACC130BD150F8042B4D
:1013000051F8043B9A4209D1A2EB0C03934313EA30
:10131000CC13DBD04FF00000704700BFD01A01BAE9
:10132000B1FA81F101F0180122FA01F0CB40C1F1CC
:101330002001DBB2C0B2C01A2CFA01F3D11A9143DA
:1013400011EAC311E6D1704701491820ABBEFEE790
:10135000260002005FEA400C08BF91F0000F4FEA40
:101360008C234FEAC12243EA51514FEA1C5018BF67
:1013700000F5F0404FEA300018BF41F000415FEA4D
:101380006C5C00F02980BCF1FF3F08BF40F080405A
:101390007047130C06BF12044FF0100C4FF0000CF6
:1013A000130E04BF12020CF1080C130F04BF12013C
:1013B0000CF1040C930F04BF92000CF1020CD30F3C
:1013C00004BF52000CF1010C11464FF00002A0F1D5
:1013D0001F00A0EB0C00704711F0004F08BF7047D2
:1013E00031F000413FF4D5AF0B0C06BF09044FF0BC
:1013F000100C4FF0000C0B0E04BF09020CF1080C8E
:101400000B0F04BF09010CF1040C8B0F04BF890002
:101410000CF1020CCB0F04BF49000CF1010CCCF114
:101420002003A0EB0C0022FA03F302FA0CF241EACB
:10143000030100F10100704720F07F4C80EA0300B7
:1014400023F07F47ACEB070303F57C5300F000402B
:1014500003F1FF032DE980494FEA154B09B44FEA28
:10146000144325EA0B4E24EA03480FF2042606EB48
:10147000132749083E785FEA320203FB0667C7F587
:10148000000707FB06F64FEA54374FEAD64606F147
:10149000020607FB066CCCF1005C4FEA1C472CEA05
:1014A000074C07FB06F40CFB06F504EB15464FEA68
:1014B000961634BF00204FF000404FEAD13706FBAC
:1014C00007FC4FEA1C4C0CFB0BF7D21B03FB0CF781
:1014D00061EB07010CFB0EF7B0EB074072EB174214
:1014E0000CFB08F734BFA2EB0742B2EB074261EBFB
:1014F00017414FEA0C444FEA910706FB07FC4FEAFD
:101500001C4C0CFB0BF7B0EBC74072EB573203FBE4
:101510000CF734BFA2EBC742B2EBC74261EB5731C5
:101520000CFB0EF7B0EBC70072EB57720CFB08F721
:1015300034BFA2EBC702B2EBC70261EB5771039F46
:101540004FEA816141EA921104EBCC044FEAD137B2
:101550004FEA826206FB07FC42EA90124FEA806083
:101560004FEA1C4C0CFB0BF7D21B03FB0CF761EB97
:1015700007010CFB0EF7B0EB074072EB17420CFBB8
:1015800008F734BFA2EB0742B2EB074261EB174109
:101590004FEA8C554FEA910704EB9C2406FB07FCAD
:1015A0004FEA1C4C0CFB0BF7B0EBC74072EB573209
:1015B00003FB0CF734BFA2EBC742B2EBC74261EBAF
:1015C00057310CFB0EF7B0EBC70072EB57720CFBF8
:1015D00008F734BFA2EBC702B2EBC70261EB577149
:1015E00015EB4C254FEA816141EA92114FEA826284
:1015F0004FEAD13742EA901206FB07FC44F100049F
:101600004FEA80604FEA1C4C0CFB0BF7D21B03FB2C
:101610000CF761EB07010CFB0EF7B0EB074072EB28
:1016200017420CFB08F734BFA2EB0742B2EB0742AC
:1016300061EB174115EB1C154FEA813141EA9241EC
:101640004FEA823242EA90424FEA80304FEA0C760B
:1016500044F1000448EA03434EEA0B484FF0000E01
:10166000B2EB080C71EB030724BF624639464EEB20
:101670000E0E4FF0000B0018524149414BEB0B0B83
:10168000B2EB080C71EB03077BF1000B24BF624641
:1016900039464EEB0E0E4FF0000B001852414941F7
:1016A0004BEB0B0BB2EB080C71EB03077BF1000B60
:1016B00024BF624639464EEB0E0E51EA020718BFB0
:1016C00046F0010616EB0E7655F1000254F10001CA
:1016D00003D5BDE88901BDE80088BDE88901BDE802
:1016E0000048B619524141EB0101A3F101037047D3
:1016F00080807F7E7D7C7B7A79787776767574734F
:10170000727171706F6E6E6D6C6C6B6A6A6968680D
:10171000676666656464636362616160605F5F5EA3
:101720005E5D5D5C5C5B5B5A5A5959585857575619
:10173000565555555454535352525251515050507E
:101740004F4F4F4E4E4D4D4D4C4C4C4B4B4B4A4AD0
:101750004A49494948484847474747464646454514
:10176000454444444443434343424242424141414D
:10177000002B26D4770021D01CB54FEA370703B4DD
:101780004FF010004FF010014FF000000FBCBDE80B
:1017900010400BF1010BBBF1010F08BF5FEA170707
:1017A00022BF12F1010211F101014FF0004143F19A
:1017B000000300F0004043EA00007047F9D35708E7
:1017C000DAE746EA064613F1400F4FEA16461FDDF8
:1017D00013F1200FDFBF16430A46002120335B427E
:1017E000C8D0C3F1200746EA064602FA07F74FEAD7
:1017F000164646EA0706C3F1200722FA03F201FA69
:1018000007F721FA03F14FF0000342EA0702B1E7BC
:1018100046EA020646EA06464FEA164646EA010648
:10182000BCBF46EA0646360C4FF000034FF00002FC
:101830004FF000019EE72DE9C048934630B491E88F
:10184000380007C831EA400C48BF34EA430C03D5DE
:10185000FFF7F2FDFFF78CFFF0BCBDE800882DE933
:10186000C048934630B491E8380007C810F0804F64
:1018700008BF13F0804F03D100F005F8FFF778FFA1
:10188000F0BCBDE8008820F07F4780EA030023F029
:101890007F4C07EB0C03A3F57C5300F00040A3F151
:1018A000FE0392F0000F00F0B38095F0000F00F0FF
:1018B00077802DE901494FEA11404FEA144621EAA9
:1018C000004800FB06FC24EA064708FB06F607FB77
:1018D00008F800FB07F718EB06484CEB164C4FEAEC
:1018E000124B18EB07484FEA15464CEB174022EA1B
:1018F0000B4E0BFB06FC25EA06470EFB06F607FB24
:101900000EFE0BFB07F71EEB064E4CEB164C4FF092
:1019100000061EEB074E4CEB174B18EB0B0840F183
:10192000000018EB0E0B58EB000840F100008F1A76
:101930004FF000013CBFC943661B14BFB5EB040C5C
:1019400000213CBFC943F61B4FEA17444EEA8E0EF6
:1019500027EA04454FEA1C4704FB07622CEA074CC0
:1019600005FB07F70CFB05F604FB0CFC16EB074622
:1019700042EB174216EB0C4642EB1C421BEB0606F1
:1019800058EB0202414146EA9E0601D5BDE80189B5
:10199000B619524141EB0101A3F10103BDE80189F0
:1019A0004FEA14454FEA114724EA054621EA074C5D
:1019B00005FB07F406FB07F70CFB06F105FB0CFC27
:1019C00011EB074144EB17444FEA124711EB0C416E
:1019D00044EB1C4422EA074C05FB07F206FB07F721
:1019E0000CFB06F605FB0CFC16EB074642EB174218
:1019F00016EB0C4642EB1C456A1854F1000148BF37
:101A00007047B619524141EB0101A3F10103704740
:101A100095F0000F37D04FEA11424FEA144721EA00
:101A2000024624EA074C02FB07F106FB07F70CFB12
:101A300006F402FB0CFC14EB074441EB17414FEAA0
:101A4000154714EB0C4441EB1C4125EA074C02FB03
:101A500007F506FB07F70CFB06F602FB0CFC16EB82
:101A6000074645EB174516EB0C4645EB1C42121991
:101A700051F1000148BF7047B619524141EB0101D5
:101A8000A3F1010370474FEA14454FEA114724EAD6
:101A9000054621EA074C05FB07F106FB07F70CFB9F
:101AA00006F24FF0000605FB0CFC12EB074241EB7F
:101AB000174112EB0C4251EB1C4148BF7047921882
:101AC00041EB0101A3F10103704710B500F090FC58
:101AD00010BD70B505460C4625B1012D06D0022D6E
:101AE00009D107E0204601F057FB05E0204601F050
:101AF000A1FB01E000E000BF00BF70BD70B504466F
:101B0000002524B1012C06D0022C09D107E007F0F2
:101B100013FF054605E007F051FF054601E000E030
:101B200000BF00BF284670BD70B50446002524B133
:101B3000012C06D0022C09D107E007F0EFFE054684
:101B400005E007F02DFF054601E000E000BF00BF03
:101B5000284670BD70B506460C46154626B1012EC6
:101B600007D0022E0BD109E02946204607F00AFFD4
:101B700006E02946204607F047FF01E000E000BFED
:101B800000BF70BD10B500F083FF10BDF8B507466B
:101B90000C4615461E462B46224602213846009624
:101BA00000F0AAFFF8BDF8B507460C4615461E46DC
:101BB0002B46224602213846009600F0F3FFF8BD7E
:101BC00010B504461CB1012001F086FC02E00020A3
:101BD00001F082FC10BD10B501F0AAFC10BD10B5DB
:101BE00007F074F810BD2DE9F04104460D46164685
:101BF0001F463B4632462946204601F001FDBDE81E
:101C0000F08110B501F01AFD10BD70B504460D4607
:101C10002946204601F030FD70BD10B501F03FFDB2
:101C200010BD2DE9F0438FB005460F461646984685
:101C3000002417A8009001A8009A1699FEF760FBEF
:101C40001FFA80F90020009000BF3CE001A8005D71
:101C5000A0281EDA2046611CCCB201A9085C8DF8D0
:101C6000380000208DF839004EB943460EAA394697
:101C7000284601F065FD05F10800C5B223E04346A2
:101C80000EAA3946284601F0CBFD05F11000C5B279
:101C900019E02046611CCCB201A9085C8DF8340023
:101CA0002046611CCCB201A9085C8DF835000020EB
:101CB0008DF8360043460DAA3946284601F084FEC9
:101CC00005F11000C5B24C45C0DB0FB0BDE8F08394
:101CD00038B504460D4604482023182229460090B2
:101CE000204601F001FD38BD4BCF000070B58CB02F
:101CF00004460D4634208DF82800200A8DF829006E
:101D0000E0B28DF82A00280A8DF82B00E8B28DF891
:101D10002C006B4601AA05210AA802F079FA0646B2
:101D200030460CB070BDB0B58CB004460D4600BF57
:101D30000C208DF8280000208DF829008DF82A400D
:101D40008DF82B008DF82C506B4601AA05210AA8AE
:101D500002F05EFA074638460CB0B0BD70B58CB0E4
:101D60000546002435208DF828008DF829506B4653
:101D700001AA02210AA802F04BFA064640F21451C9
:101D8000002000F0F3F932E0694601A800F01EF9E6
:101D90000646012E28D100241FE001A8005D00F0B6
:101DA000F000802805D001A8005D00F0F000B02808
:101DB00009D10A2009F044FD694601A800F056F94E
:101DC00001200CB070BD01A8005D00F0F000A0285B
:101DD00001D10020F5E7601CC4B29DF800008442E8
:101DE000DBDB0A2009F02CFD0A2009F029FD002088
:101DF00000F0E2F90028C7D13046E2E770B58CB0B8
:101E000004460D460F208DF8280005208DF8290086
:101E10006B4601AA02210AA802F0FAF906462EB181
:101E20009DF8040020709DF80500287030460CB025
:101E300070BD30B58DB004460F208DF82C00012008
:101E40008DF82D0020788DF82E0060788DF82F0009
:101E5000A0788DF83000E0788DF8310001AB02AA4F
:101E600006210BA802F0D4F9054628460DB030BD76
:101E7000F8B504460D4600BF0F208DF80000002085
:101E80008DF801002B4622460221684602F0C0F977
:101E900007463846F8BD00002DE9FC4104460D46D2
:101EA00000270F208DF8040003208DF805002B4635
:101EB0002246022101A802F0ABF9074628780090DB
:101EC00063782278394606A007F0E8FB27B10DB108
:101ED000012602E0002600E000263046BDE8FC8135
:101EE0000D0A4472764368616E67652073203D2059
:101EF00025642C25642C25642C25640D0A00000023
:101F000070B58CB0044600260F208DF82800042000
:101F10008DF829006B4601AA02210AA802F078F97F
:101F200005464DB19DF8000020B900BF9DF80400A2
:101F3000207002E0012600E0022630460CB070BDA1
:101F400030B58DB004460F208DF82C0002208DF89E
:101F50002D008DF82E4001AB02AA03210BA802F040
:101F600057F9054628460DB030BD30B58DB0044652
:101F700037208DF82C0001208DF82D0020788DF869
:101F80002E0060788DF82F00A0788DF83000E07872
:101F90008DF8310001AB02AA06210BA802F038F936
:101FA000054628460DB030BDF8B504460D4637202D
:101FB0008DF8000002208DF801002B4622460221F8
:101FC000684602F025F906463046F8BDF8B50446E5
:101FD0000D46332000902B4622460121684602F030
:101FE00017F906463046F8BDF8B504460D460B20F5
:101FF00000902B4622460121684602F009F9064668
:102000003046F8BD3EB5302002906B4601AA012152
:1020100002A802F0FDF8044620463EBD3EB5082069
:1020200002906B4601AA012102A802F0F1F80446D1
:1020300020463EBDF8B504460D46312000902B46A3
:1020400022460121684602F0E3F806463046F8BD14
:10205000F8B504460D46092000902B462246012182
:10206000684602F0D5F806463046F8BDF8B5044695
:102070000D46362000902B4622460121684602F08C
:10208000C7F80646012E0BD1207800F0800080288A
:1020900003D101200349887102E0002001498871C1
:1020A0003046F8BDDCC30720F8B504460D460A20CB
:1020B00000902B4622460121684602F0A9F8064608
:1020C0003046F8BD10B505F085FD1A48006840F0AF
:1020D00080701849C439C1F8C400802016490873BB
:1020E000002008717D2008704120134928310870B4
:1020F0000320114908730720087205204860072053
:10210000012181404209920002F1E022C2F800114F
:1021100000BF0521002807DACA06140E074A00F09E
:102120000F031B1FD45403E0CA06130E044A1354B2
:1021300000BF10BDC4C00F400080094018ED00E092
:1021400000E400E010B50446204606F089FD10BD0D
:1021500010B506F05BFD10BD10B50446204606F034
:102160009BFD10BD10B506F08FFB10BD70B5044689
:102170000D46082C06DA044840F8245001210020BE
:1021800007F04CFA70BD000098C5072010B5044652
:1021900014B1012C0AD104E00649002000F062FECF
:1021A00005E00449032000F05DFE00E000BF00BF31
:1021B00010BD000080A903000146082903DA034886
:1021C00050F8210070470020FCE7000098C5072068
:1021D00010B502F081F810BD70B504460D462946D1
:1021E000204606F091F870BD00BF4FF41651012053
:1021F000FFF76FFC11E00120FFF796FC50B10120C2
:10220000FFF77CFC0446542C04D1052203A10120D5
:10221000FFF7A0FC0A2009F013FBECE75265760DEE
:102220000A0000002DE9F0478AB00746884691462B
:102230001D464FF0000A0024B9F1020F0ED0B9F18B
:10224000030F06D0B9F1060F0DD0B9F1090F1ED159
:1022500013E00121084605F069FC19E00121002086
:1022600005F064FC14E00120FFF778FD10B10220B6
:10227000287001E0012028700AE00020FFF76EFDC1
:1022800010B10420287001E00320287000E000BF96
:1022900000BF0A2009F0D4FA694601A8FFF796FEAC
:1022A0000646012E6FD100204D4908704D49087037
:1022B0000A2009F0C5FA9DF8000038B90A2009F093
:1022C000BFFA47480021016041600172002472E0BA
:1022D00001A8005D00F0F000902813D101A8005D76
:1022E00000F00F0A404850F82A0040490968484366
:1022F000386088F800A00A2009F0A2FA01200AB08C
:10230000BDE8F08701A8005D00F0F000A02802D130
:10231000012028704DE001A8005D00F0F00088BBAE
:1023200001A8005D072828D006DC3BD2DFE800F0DA
:102330003A1317181C2024000B282AD006DC082882
:102340001CD0092820D00A282CD121E00C2821D02B
:10235000292827D122E001202149487028E027E0E0
:1023600001201F49C87123E001201D49C8701FE0EA
:1023700001201B4908711BE01AE019E001201849EF
:10238000487115E015E01BE001201549C8710FE008
:102390000EE00DE001201249887109E0012010498A
:1023A000087205E00E48002101604160017200BF23
:1023B00000BF601CC4B29DF80000844288DB0DE0C1
:1023C00008480078401C07490870084600781E2815
:1023D00001DB0020087001200149087000208EE711
:1023E000DCC3072030C0072094C307202CC007207F
:1023F00010B50848006840F080700649086008463B
:10240000806940F0807088610121022007F006F9A0
:1024100010BD000000C009202DE9F04F8BB08146AF
:102420000E464FF0000A242102A8FEF7A9F905F094
:10243000E3FB0A2009F004FA002030602948006814
:10244000B9FBF0F844E0B8F1C80F01D9C82000E0AA
:102450004046C4B2A8EB04082046FFF771FD0746CA
:10246000012F35D104EBD47040101430642200FBEE
:1024700002F10020FFF77AFE24E002A8FFF740FDFA
:102480000746E7B9242102A8FEF77AF901A902A8B4
:10249000FFF702FD0746002F11DD00250AE002A824
:1024A000405D1149495D48430E49096800FB01AA96
:1024B000681CC5B29DF804008542F0DB07E00A20E5
:1024C00009F0BEF90020FFF777FE0028D5D100BF44
:1024D000B8F1000FB7D1C6F800A001200BB0BDE8DD
:1024E000F08F000034C0072037C307201E48006A61
:1024F00040F480701C4908620846C06B40F480704C
:10250000C8630846006A40F4007008620846C06B61
:1025100040F40070C8630846006A40F480600862B6
:102520000846C06B40F48060C8630846006A40F407
:10253000804008620846C06B40F48040C86308468B
:10254000006A40F4004008620846C06B40F4004056
:10255000C8630846006A40F4803008620846C06BD1
:1025600040F48030C863704700C009202DE9F04373
:102570008BB005460E4617464FF0000801A902A889
:10258000FFF732FD8146B9F1010F6ED100204649B7
:1025900008709DF8040020B90846002101604160E0
:1025A0000181002475E002A8005D00F0800010B1F8
:1025B000601CC4B26BE002A8005D00F0C0004028BF
:1025C0001ED102A8005D00F03000102804D002A83F
:1025D000005D00F0300080B902A8005D00F00F0837
:1025E000324810F80800324909684843286086F8E4
:1025F000008001200BB0BDE8F083601CC4B246E04F
:1026000002A8005D00F0E000202840D002A8005D94
:102610000E2835D2DFE800F034071516171B1C1DF5
:1026200021252A2B2C3023480078401C2149087092
:1026300008460078012803DB01203870002008706C
:1026400024E023E022E00120174948701EE01DE04D
:102650001CE001201449887018E001201249C8705C
:1026600014E001201049087110E017E00EE00DE0C1
:1026700001200D49487109E001200B49887105E0EE
:102680000948002101604160018100BF00BF601C5A
:10269000C4B29DF80400844285DB02E001200249B7
:1026A00008700020A6E70000E5C3072037C3072015
:1026B00034C0072038C0072070B502460B46002002
:1026C000002500211CE0565C3502002414E080EA5D
:1026D000050636B2002E05DA42F2021686EA4006F8
:1026E000B0B203E04FF6FF7606EA40004FF6FF7601
:1026F00006EA4505661CB4B2082CE8DB4E1CB1B2F4
:102700009942E0D370BD000008B507F06FFA0948A0
:1027100090F86D10084850F8210000231A460D214A
:1027200000900720FFF77DFA4FF4966009F088F8D3
:1027300008BD0000DCC10720A8C1000010B50220C0
:102740000A490860132006F069F80948006920F476
:102750008000074908610748006C20F400600549C3
:1027600008640121084606F059FF10BD40C10F4022
:1027700000C0024000C00920F8B50025002694E002
:10278000FFF73FFA4A4890F86D004A4951F8200097
:1027900000231A46194600901846FFF742FA022114
:1027A0000020FFF732FA424890F86D104148083097
:1027B00050F8210000231A46032100901020FFF753
:1027C00030FA3B4890F86D103A48103050F821002C
:1027D00000231A46052100901020FFF722FA344802
:1027E00090F86D103348183050F8210000231A4635
:1027F000072100901020FFF714FA2D4890F86D1073
:102800002C48203050F8210000231A46092100905E
:102810001020FFF706FA264890F86D10254828305A
:1028200050F8210000231A460B2100901020FFF7DA
:10283000F8F91F4890F86D101E48303050F821000C
:1028400000231A460E2100901846FFF7EAF927E008
:102850000026FFF7C4F904463E2C01D1012520E0F3
:10286000A4F14100052813D2DFE800F00306090CAB
:102870000F000126104F0DE00126104F0AE001263F
:102880000F4F07E001260F4F04E001260E4F01E035
:10289000002600BF00BF06B103E00A2008F0D0FF09
:1028A000D6E700BF05B101E0B84769E700BFF8BD52
:1028B000DCC1072000C20000614D0000F5420000AD
:1028C000294F0000195300005974000010B5374813
:1028D00090F86E00012830D13548007818B135A144
:1028E0003548FDF7DAFE3248407818B133A1324856
:1028F000FDF7D3FE2E48807818B131A12E48FDF7A0
:10290000CCFE2B48C07818B12EA12B48FDF7C5FE90
:102910002748007918B12CA12748FDF7BEFE2448AE
:10292000407918B129A12448FDF7B7FE20488079E5
:1029300018B127A12048FDF7B0FE1C4890F86F00A1
:10294000012830D12348007818B123A11A48FDF797
:10295000A4FE2048407818B120A11748FDF79DFE3D
:102960001C48807818B11EA11348FDF796FE19483F
:10297000C07818B11BA11048FDF78FFE15480079EB
:1029800018B119A10C48FDF788FE1248407918B11A
:1029900016A10948FDF781FE0E48807918B114A1EF
:1029A0000548FDF77AFE044810BD0000DCC1072091
:1029B000DCC3072042310000E0C0072042320000A3
:1029C000423300004234000042350000423600002D
:1029D00042370000E5C307204331000043320000C6
:1029E0004333000043340000433500004336000009
:1029F00043370000002102E000BF4A1CD1B28142EF
:102A0000FADB70470246062A3AD2DFE802F0030CEE
:102A1000151E27301D48406BC0F3002008B101216E
:102A200000E000212EE01948406BC0F3402008B1BF
:102A3000012100E0002125E01448406BC0F3802014
:102A400008B1012100E000211CE01048406BC0F3F8
:102A5000803008B1012100E0002113E00B48406BF9
:102A6000C0F3C03008B1012100E000210AE00748AE
:102A7000406BC0F3004008B1012100E0002101E0FB
:102A8000012100BF00BFC8B27047000000C009208C
:102A900010B51548006840F080001349C439C1F8EA
:102AA000C4001E201149086148612C208861402023
:102AB00008600A20012181404209920002F1E022CF
:102AC000C2F8001100BF0321002807DACA06140E5D
:102AD000074A00F00F031B1FD45403E0CA06130E6D
:102AE000044A135400BF10BDC4C00F4000C00140D1
:102AF00018ED00E000E400E02DE9F04105460E4647
:102B000014461F46DDF81880B8F1000F37D0012EAB
:102B100007D1681C1B4908701B48046001201B4931
:102B20000870022E07D1681C164908701648046008
:102B3000022016490870032E0CD10E2000EAD41092
:102B40002844401C0F490870E0B20F49086001207A
:102B50000E4908700E4807600E48C0F8008001203A
:102B60000D49087000200D4908702C200C4988611F
:102B700060200860642008F0C7F9BDE8F0810020FB
:102B8000FBE70000C4C00720C8C00720CCC0072056
:102B9000D0C00720D4C00720D9C00720D8C0072044
:102BA00000C001402DE9F04105460E4614461F467F
:102BB000DDF81880B8F1000F34D0012E06D11A4884
:102BC00005701A480460012019490870022E06D1C8
:102BD0001548057015480460022015490870032E39
:102BE0000BD10E2000EAD41028440F490870E0B23F
:102BF0000E49086001200E4908700E4807600E4813
:102C0000C0F8008002200D49087000200C490870AF
:102C10002C200C49886160200860642008F074F959
:102C2000BDE8F0810020FBE7C4C00720C8C0072032
:102C3000CCC00720D0C00720D4C00720D9C00720AF
:102C4000D8C0072000C001407E48406800F0F8006E
:102C500000F00701002979D1C0100C2876D2DFE8F6
:102C600000F0EE061920B421B5B6A5B7BEDB764854
:102C70000078012806D17548007800F0FE007149FF
:102C8000886003E0714800786E49886028206D49AB
:102C90008861D5E06D4800786A498860282088619D
:102CA000CEE000BF68480078E8B96948006890B194
:102CB0006848006800786349886066480068401C7E
:102CC0006449086028205F49886161480068401EA7
:102CD0005F49086007E010205A4908602820886191
:102CE00001205D4908705848007801282FD15B48C1
:102CF000007802280DD15A480068C0F307205149D6
:102D000088602820886155480078401E5349087023
:102D100096E05248007801280CD151480068C0B2B2
:102D200048498860282088614C480078401E4B49FB
:102D3000087085E04948007848B908204149886111
:102D40002020086000204049087079E077E03E4884
:102D50000078022829D141480078002825DD3F4825
:102D6000007802280DD13E480068C0F3072035499D
:102D700088602820886139480078401E37490870EB
:102D80005EE03648007801280FD135480068C0B2AF
:102D90002C4988602820886130480078401E2F49DF
:102DA00008700020284908704AE049E02848006877
:102DB000012803D804202349886102E00420214926
:102DC000086028201F4988613AE000BF00BF00BFAB
:102DD00028201C498861FF201F49087030E01948ED
:102DE00080681C49096808701A480068401C194925
:102DF000086017480068401E1549086008460068CA
:102E0000012803D12C200F49886104E004200D49DA
:102E100008602820886113E00A4880680D49096825
:102E200008700C480068401C0A49086010200549D9
:102E300008602820886101200749087000E000BF71
:102E400000BF704700C00140D9C00720C4C00720A0
:102E5000D4C00720D0C00720D8C00720CCC007208E
:102E6000C8C0072070B505460C4635B1012D1ED0EF
:102E7000022D34D0032D72D150E002204FF04021BA
:102E8000486001200860002008678860C860084624
:102E9000846103204861012005F0D7FC072101204F
:102EA00005F0DEFC00204FF04021486058E0022091
:102EB0002C49486001200860002008678860C860CD
:102EC0000846846103204861022005F0BEFC06210B
:102ED000022005F0C5FC00202249486040E022485D
:102EE000006840F480002049C439C1F8C4000220C1
:102EF0001E49486001200860002008678860C8609B
:102F0000084684610320486105F09FFC02210320EC
:102F100005F0A6FC01201549486021E01248006830
:102F200040F400001049C439C1F8C400022010491F
:102F3000486001200860002008678860C860084673
:102F4000846103204861042005F07FFC04210846C9
:102F500005F086FC01200649486001E0FFE700BF5C
:102F600000BF70BD00800040C4C00F400000094099
:102F70000040094030B589B01E2301AA4FF400710A
:102F8000A020FEF703FE0546002D7CD0D02101A82D
:102F9000FFF792FB04469DF8040000069DF805101B
:102FA00000EB01409DF8061000EB01209DF8071092
:102FB00008443F4908609DF8080000069DF8091084
:102FC00000EB01409DF80A1000EB01209DF80B106A
:102FD0000844374948609DF80C0000069DF80D1024
:102FE00000EB01409DF80E1000EB01209DF80F1042
:102FF00008442F4988609DF8100000069DF81110C4
:1030000000EB01409DF8121000EB01209DF8131019
:103010000844274948619DF8140000069DF81510E2
:1030200000EB01409DF8161000EB01209DF81710F1
:1030300008441F4988619DF8180000069DF8191082
:1030400000EB01409DF81A1000EB01209DF81B10C9
:1030500008441749C8619DF81C0000069DF81D1022
:1030600000EB01409DF81E1000EB01209DF81F10A1
:1030700008440F4908629DF82000E1B2884215D04B
:103080009DF8210000E005E0B0EB242F0ED100F008
:10309000BBFD0BE00020064908604860886048617D
:1030A0008861C861086201200249487009B030BDDA
:1030B000F0C207201EC0072070B5A8B09A2301AA4D
:1030C0004FF48071A020FEF761FD0646002E5AD015
:1030D000982101A8FFF7F0FA054615B900F0FEFCAB
:1030E00053E09DF89D00E9B288424ED19DF89C00C6
:1030F000B0EB252F49D1002412E001A904F13000E2
:10310000085C095D00EB0120214921F81400084604
:1031100030F8140010B901201E494870601C84B2B8
:10312000302CEADB002408E001A904F16000095C0E
:10313000174860300155601C84B2302CF4DB9DF8D8
:1031400095009DF8941000EB01201149A1F8900022
:103150009DF897009DF8961000EB01200C49A1F80E
:1031600092009DF899009DF8981000EB0120084905
:10317000A1F894009DF89A0081F896009DF89B00B4
:1031800081F8970001E000F0A9FC28B070BD0000B4
:1031900056C207201EC0072070B504461D480068AF
:1031A00040F008001B49C439C1F8C40083201A4903
:1031B00008731A48B0FBF4F5280A08710D70032053
:1031C000087387200872052001218140420992007E
:1031D00002F1E022C2F8001100BF0A21002807DA3C
:1031E000CA06160E0E4A00F00F031B1FD65403E04A
:1031F000CA06130E0B4A135400BF0120064948604B
:103200000020094908700949087040210848FDF765
:1032100095FA70BDC4C00F4000C0004060E31600C6
:1032200018ED00E000E400E094C0072095C00720FE
:10323000D8C4072070B505462348006840F00070E8
:103240002149C439C1F8C4008320204908732048AB
:10325000B0FBF5F084B22046E11704EB1161090AD6
:103260001A4A1171E11704EB11610912A4EB012153
:1032700011700320114608738720087201204860EE
:103280000020144908701449087080211348FDF784
:1032900055FA0820012181404209920002F1E02202
:1032A000C2F8001100BF0B21002807DACA06160E6B
:1032B0000B4A00F00F031B1FD65403E0CA06130E7F
:1032C000084A135400BF70BDC4C00F4000C009407D
:1032D00060E3160096C0072097C0072018C5072096
:1032E00018ED00E000E400E02DE9F0419EB04FF061
:1032F0000008732301AA0021A020FEF747FC07461F
:10330000002F69D0712101A8FFF7D6F906469DF874
:103310007600F1B288425CD19DF87500B0EB262FA3
:1033200057D10024002507E001A8005D2D4948552C
:10333000601C84B2681C85B2302CF5DB302400257B
:1033400008E001A8015D274830304155601C84B277
:10335000681C85B2602CF4DB4FF000086024002567
:1033600010E001A8015D1F486030415501A8005DD3
:1033700010B94FF0010801E04FF00008601C84B262
:10338000681C85B2672CECDB6724002508E001A8E7
:10339000015D144867304155601C84B2681C85B2D9
:1033A0006D2CF4DB9DF871000E4981F86D009DF8DD
:1033B000720081F86E009DF8730081F86F009DF82F
:1033C000740081F87000B8F1000F07D000F0ACFB7A
:1033D00004E000F0A9FB01E000F0A6FB1EB0BDE890
:1033E000F0810000DCC107202DE9F0413748406D35
:1033F000C0F3C0270FB1FF2561E03448406BC0F334
:10340000001080003149496BC1F3400140EA41009E
:103410002E49496B01F0010140EA01062B48006A80
:103420002B490840294908622820FFF7E3FA032EB8
:1034300004D0052E16D0062E3ED128E0022005F03D
:1034400057FC00240AE02046FFF7DCFA08B1FF250C
:1034500002E02048055D03E0601CC4B2062CF2DBEC
:1034600000BF2BE0012005F043FC00240BE02046C8
:10347000FFF7C8FA08B1FF2503E01648801F055D75
:1034800003E0601CC4B2062CF1DB00BF16E0002094
:1034900005F02EFC00240BE02046FFF7B3FA08B13C
:1034A000FF2503E00B480C38055D03E0601CC4B247
:1034B000062CF1DB00BF01E0FF2500BF00BFFFF7D6
:1034C00015F805F049FC2846BDE8F08100C0092048
:1034D000FF38FEFF5CC6000010B5044611480068C6
:1034E00040F080700F4908600846C06940F0807065
:1034F000C86184B1FEF7FAFF05F02EFC0A480069A6
:1035000040F480000849086102200849086013203F
:1035100005F090F905E0022004490860132005F049
:103520007DF910BD00C0092000C0024040C10F401D
:1035300010B5FEF7DBFF05F00FFC1D490120FFF77A
:1035400091FC1C490220FFF78DFC1B48006C20F405
:10355000806019490864002201210A2008F0A4FAB9
:10356000164908601648006940F480001449086153
:1035700002201449086000201349C1F84C010220C0
:10358000104908390860132005F054F91320082168
:10359000002807DACA06140E0C4A00F00F031B1F9E
:1035A000D45403E0CA06130E094A135400BF10BDD9
:1035B00080A90300407E050000C009209CC00720B0
:1035C00000C0024048C10F4000C00F4018ED00E0AD
:1035D00000E400E00949096C41F00401074A116464
:1035E00028B11146896D41F00401916505E0034958
:1035F000C96D41F00401014AD165704700C009203E
:103600002DE9F04707460C469046994600250FE005
:103610003E4609E06019C1B2304600F045FA00208C
:1036200005F006FA701CC6B24645F3DD681CC5B24B
:10363000A9EB0400A842EBDABDE8F08770B50024DE
:103640000EE02146002000F02FFA002504E00020C3
:1036500005F0EEF9681CC5B2F02DF8DB601CC4B2B1
:10366000102CEEDB0020024908700249087070BD82
:1036700098C0072099C0072070B504460E46314611
:10368000204600F011FA002504E0082005F0D0F9EA
:10369000681CC5B2C4F1F000A842F6DC70BD10B5DC
:1036A000E22005F093F9142008F0CAF8262005F06E
:1036B0008DF92F2005F08AF9EA2005F087F981209D
:1036C00005F084F9722005F081F9C82005F07EF933
:1036D000402005F07BF9AF2005F078F9FFF7AEFF49
:1036E0000120FFF777FF10BD2DE9F05F06460F467A
:1036F00090461C46DDF828A04FF0000BD94616E096
:1037000000250CE059464B1C1FFA83FB1AF80120D8
:103710007119C8B2394600F0BBF9681CC5B24545FD
:10372000F0DB781CC7B209F1010000F0FF09E117D6
:1037300004EB5171B9EBE10FE2DBBDE8F09F000053
:103740002DE9F04705460F469046994641463248D6
:10375000FCF74EFF82463048824501D2BDE8F08733
:103760002D48AAEB00004FF6FF7101EA0016B9F1EF
:10377000000F29D000240DE03146731C9EB2274B68
:10378000595CC943CAB22919C8B2394600F080F958
:10379000601CC4B2082CEFDB002412E0334606F1B3
:1037A000010C1FFA8CF6DFF874C01CF80330DB4301
:1037B000DAB27B1CD9B22B19D8B200F069F9601CBF
:1037C000C4B2082CEADB24E000240BE03146731C71
:1037D0009EB2124B5A5C2919C8B2394600F058F90A
:1037E000601CC4B2082CF1DB002410E0334606F163
:1037F000010C1FFA8CF6DFF824C01CF803207B1C98
:10380000D9B22B19D8B200F043F9601CC4B2082C0D
:10381000ECDB00BFA2E7000062C60000BFC60000EC
:103820002DE9F04705460F4690469A4698F8000065
:10383000302803DB98F80000392803DD98F80000F1
:103840002E286AD141465E48FCF7D2FE81465C498B
:10385000894501D2BDE8F0875948A9EB00004FF631
:10386000FF7101EA8016BAF1000F57D000240DE075
:103870003146731C9EB2534B595CC943CAB22919D5
:10388000C8B2394600F004F9601CC4B2102CEFDB5A
:10389000002412E0334606F1010C1FFA8CF6DFF823
:1038A00024C11CF80330DB43DAB27B1CD9B22B19DC
:1038B000D8B200F0EDF8601CC4B2102CEADB002492
:1038C00012E0334606F1010C1FFA8CF6DFF8F4C063
:1038D0001CF80330DB43DAB2FB1CD9B22B19D8B287
:1038E00000F0D6F8601CC4B2102CEADB002412E011
:1038F000334606F1010C1FFA8CF6DFF8C8C01CF83D
:103900000330DB43DAB23B1DD9B22B19D8B200F039
:10391000BFF8601CC4B2102CEADB4EE000240BE0C0
:103920003146731C9EB2274B5A5C2919C8B23946DE
:1039300000F0AEF8601CC4B2102CF1DB002410E0E3
:10394000334606F1010C1FFA8CF6DFF878C01CF83C
:1039500003207B1CD9B22B19D8B200F099F8601C57
:10396000C4B2102CECDB002410E0334606F1010C4D
:103970001FFA8CF6DFF84CC01CF80320BB1CD9B230
:103980002B19D8B200F084F8601CC4B2102CECDB08
:10399000002410E0334606F1010C1FFA8CF6DFF824
:1039A00024C01CF80320FB1CD9B22B19D8B200F09C
:1039B0006FF8601CC4B2102CECDB00BF4AE70000BB
:1039C0007FCC00008BCC00002DE9F04705460F4668
:1039D0009046994641462C48FCF70AFE82462A4802
:1039E000824503D3AAEB0000060101E0BDE8F087A1
:1039F000B9F1000F25D000240CE03146761C234B92
:103A0000595CC943CAB22919C8B2394600F040F816
:103A1000601CC4B2102CF0DB00240FE03346761C8F
:103A2000DFF868C01CF80330DB43DAB27B1CD9B284
:103A30002B19D8B200F02CF8601CC4B2102CEDDBAE
:103A400020E000240AE03146761C104B5A5C29190C
:103A5000C8B2394600F01CF8601CC4B2102CF2DB6E
:103A600000240DE03346761CDFF820C01CF803204C
:103A70007B1CD9B22B19D8B200F00AF8601CC4B272
:103A8000102CEFDB00BFB1E7ABCF0000BAD10000D4
:103A900070B505460E4614463146284600F004F837
:103AA000204604F0C5FF70BD70B504460D460948B8
:103AB00004700948057045F0B00004F087FF10213C
:103AC00041EA241004F082FF04F00F0004F07EFFAE
:103AD00070BD000098C0072099C00720002005E0B5
:103AE0006421104A22F81010411CC8B23028F7DBBC
:103AF000002005E008220B4960310A54411CC8B27D
:103B00003028F7DB0021074AA2F890104FF6FF712A
:103B1000A2F89210A2F89410012182F8961082F86F
:103B20009710704756C2072070B59EB0002406E07B
:103B300001203449085501A90855601C84B2302C75
:103B4000F6DB002409E008212E483030015501AA97
:103B500004F130001154601C84B2302CF3DB0024DB
:103B600008E028486030045504F1600001AA1454AC
:103B7000601C84B2072CF4DB00240DE004F131005A
:103B8000C1B220486730015504F13100C1B236306E
:103B900001AA1154601C84B2062CEFDB00201949E5
:103BA00081F86D008DF87100012081F86E008DF8AC
:103BB000720081F86F008DF87300002081F87000AA
:103BC0008DF87400712101A8FEF776FD06463012CB
:103BD0008DF87500F0B28DF87600732301AA0021EC
:103BE000A020FDF7E0FF05464DB9142007F028FEA0
:103BF000732301AA0021A020FDF7D5FF05461EB0C2
:103C000070BD0000DCC1072070B588B000240AE058
:103C1000484800681821A1EBC401C840C0B20DF8A3
:103C20000400601C84B2042CF2DB00240BE0414849
:103C300040681821A1EBC401C840C1B2201D0DF895
:103C40000010601C84B2042CF1DB00240CE0394825
:103C500080681821A1EBC401C840C1B204F108007A
:103C60000DF80010601C84B2042CF0DB00240CE082
:103C7000304840691821A1EBC401C840C1B204F129
:103C80000C000DF80010601C84B2042CF0DB002442
:103C90000CE0284880691821A1EBC401C840C1B2DA
:103CA00004F110000DF80010601C84B2042CF0DB4D
:103CB00000240CE01F48C0691821A1EBC401C840D2
:103CC000C1B204F114000DF80010601C84B2042C81
:103CD000F0DB00240CE01748006A1821A1EBC401B6
:103CE000C840C1B204F118000DF80010601C84B285
:103CF000042CF0DB1C216846FEF7DEFC0646301281
:103D00008DF81C00F0B28DF81D001E236A464FF49A
:103D10000071A020FDF747FF05464DB9142007F0BC
:103D20008FFD1E236A464FF40071A020FDF73BFF74
:103D300008B070BDF0C2072070B5A8B0002416E02E
:103D4000494830F81400001201A90855464830F8D7
:103D50001400C1B201AA04F130001154424830F8F5
:103D6000140010B9012041494870601C84B2302C05
:103D7000E6DB002408E03C486030015D01AA04F164
:103D800060001154601C84B2302CF4DB3648B0F86B
:103D9000900000128DF894003348B0F89000C0B243
:103DA0008DF895003048B0F8901031A005F076FC01
:103DB0002D48B0F8920000128DF896002A48B0F80D
:103DC0009200C0B28DF897002748B0F8921031A049
:103DD00005F064FC2448B0F8940000128DF89800B7
:103DE0002148B0F89400C0B28DF899001E48B0F890
:103DF000941031A005F052FC1B4890F896008DF805
:103E00009A00194890F8961034A005F047FC16481F
:103E100090F897008DF89B00134890F897103AA0FF
:103E200005F03CFC982101A8FEF746FC064630123E
:103E30008DF89C00F0B28DF89D009A2301AA4FF4F2
:103E40008071A020FDF7AFFE054655B9142007F09C
:103E5000F7FC9A2301AA4FF48071A020FDF7A3FE7E
:103E6000054628B070BD000056C207201EC00720BE
:103E70005472616465506172616D2E54797065424F
:103E8000696C6C457363726F77203D202530345820
:103E90000D0A00005472616465506172616D2E54A8
:103EA00079706542696C6C456E61626C65203D207D
:103EB000253034580D0A00005472616465506172F7
:103EC000616D2E54797065436F696E456E61626CE9
:103ED00065203D20253034580D0A0000547261647D
:103EE00065506172616D2E536572766963655768BE
:103EF000656E4E6F4368616E676572203D202530A8
:103F000032580D0A000000005472616465506172FD
:103F1000616D2E536572766963655768656E426997
:103F20006C6C537461636B6572497346756C6C207D
:103F30003D20253032580D0A0000000070B59EB0BB
:103F4000002405E03048005D01A90855601C84B2DA
:103F5000302CF7DB002408E02B483030015D01AA4B
:103F600004F130001154601C84B2302CF4DB0024C6
:103F700008E025486030015D04F1600001AA115499
:103F8000601C84B2072CF4DB002408E01E48673074
:103F9000015D04F1670001AA1154601C84B2062C73
:103FA000F4DB194890F86D008DF87100164890F810
:103FB0006E008DF87200144890F86F008DF8730051
:103FC000114890F870008DF87400712101A8FEF777
:103FD00073FB064630128DF87500F0B28DF876004E
:103FE000732301AA0021A020FDF7DDFD05464DB990
:103FF000142007F025FC732301AA0021A020FDF75F
:10400000D2FD05461EB070BDDCC107200A22B0FB00
:10401000F2F291B2024A52680A44014B5A60704768
:10402000F0C2072010B5002004490860886088614C
:10403000C8614860FFF7E8FD10BD0000F0C207202E
:1040400010B5FFF7E1FD10BD10B50A23B0FBF3F387
:104050009AB2012905D1074B1B681344054C236014
:1040600006E0022904D1034B9B681344014CA36072
:1040700010BD0000F0C20720012805D1054989695B
:10408000491C044A916104E00249C969491C014A7A
:10409000D1617047F0C207202DE9FE43FDF7B1FD65
:1040A000584890F86D00584951F8200000231A46EE
:1040B000194600901846FDF7B4FD02210020FDF7D7
:1040C000A4FD504890F86D104F48083050F821007A
:1040D00000231A46032100901020FDF7A2FD494855
:1040E00090F86D104848183050F8210000231A4607
:1040F0000E2100901020FDF794FD002448264FF07B
:1041000007087BE0FDF76BFD01A9085501A8005DDC
:10411000002870D001A8005D3E2800D16FE001A802
:10412000005D3C2858D1052C1FDA0823EF22072117
:104130000020FDF758FD334890F86D1032481030DC
:1041400050F8210000231A46072100903020FDF787
:1041500068FD642007F074FB0823EF22072100208C
:10416000FDF741FD4826002445E0002700250CE02E
:1041700001A8415D23486730405D814201D101279C
:1041800001E0002703E0681CC5B2062DF0DB00BF8C
:10419000FFB90823EF2207210020FDF724FD19486D
:1041A00090F86D101848103050F8210000231A467E
:1041B000072100903020FDF734FD642007F040FB1C
:1041C0000823EF2207210020FDF70DFD48260024DB
:1041D00011E0FEF7D1FA12E0052C0CDC0BA0002355
:1041E0001A46414600903046FDF71BFD06F11000CF
:1041F000C6B2601CC4B20A2007F022FB82E700BFEF
:10420000BDE8FE83DCC10720E0C100002A000000F9
:104210002DE9F05F05460E46174698464FF0000B15
:1042200003F0D8FCDA46A1202749087095F80090E1
:104230000EB1242E02DD5846BDE8F09F28780121FA
:1042400003F07EFE95F80090012409E0285D00212E
:1042500003F076FE285D484400F0FF09601CC4B2FC
:10426000B442F3DB0021484603F06AFE28211748D8
:1042700004F086FD21E014480078A3281AD14FF0FD
:10428000010B13480078002805DD11480078401E16
:1042900000F0FF0A01E04FF0000A002405E00D489D
:1042A000005D07F8010B601CC4B25445F7DB88F8C9
:1042B00000A006E0032007F0C3FA044800680028C5
:1042C000D9D100BF5846B7E7DCC00720A0C00720FF
:1042D000DAC00720B8C5072010B5002003F08AFF18
:1042E000002003F06FFEFF2003F09AFFFF2003F091
:1042F0008BFE10BD2DE9FF5F002003908346FCE399
:104300004FF0000BFDF77DFCFD4890F86D00FD4976
:1043100051F8200000231A46194600901846FDF770
:1043200080FC02210020FDF770FCF54890F86E003B
:10433000F34991F86D20F349083151F82210002318
:104340001A46CDE9001003211020FDF76AFCEC4865
:1043500090F86F00EA4991F86D20EA49103151F860
:10436000221000231A46CDE9001005211020FDF788
:1043700058FCE34890F87000E14991F86D20E1495C
:10438000183151F8221000231A46CDE900100721F8
:104390001020FDF746FCDA4890F86D00D84991F8F6
:1043A0006D20D849203151F8221000231A46CDE95A
:1043B000001009211020FDF734FCD14890F86D0061
:1043C000CF4991F86D20CF49283151F822100023B0
:1043D0001A46CDE9001009218020FDF722FCC848CB
:1043E00090F86D10C748603050F8210000231A463D
:1043F0000C2100901020FDF714FCC14890F86D10BE
:10440000C048683050F8210000231A460E21009061
:104410001846FDF706FCF7E3FDF7E1FB04463E2CEA
:1044200002D101200390F0E3A4F14100052871D2EC
:10443000DFE800F0035DB8F5F400B14890F86E00D5
:10444000AF4991F86D20AF49083151F8221001238E
:104450000022CDE9001003211020FDF7E2FB43E02C
:10446000FDF7BDFB04463C2C01D03E2C06D14FF09D
:10447000010B3C2C01D1FFF761FD36E0302C02D05E
:10448000312C2CD115E000209D4981F86E000846A2
:1044900090F86E0091F86D209A49083151F8221079
:1044A00001230022CDE9001003211020FDF7B9FB04
:1044B00016E00120924981F86E00084690F86E00DF
:1044C00091F86D208F49083151F822100123002204
:1044D000CDE9001003211020FDF7A3FB00E000BF91
:1044E00000BF142007F0ACF9BAE700BFFEE3844830
:1044F00090F86F00824991F86D208249103151F88F
:10450000221001230022CDE9001005211020FDF723
:1045100088FB44E0EBE3FDF762FB04463C2C01D052
:104520003E2C06D14FF0010B3C2C01D1FFF706FDCC
:1045300036E0302C02D0312C2CD115E0002070490F
:1045400081F86F00084690F86F0091F86D206D4972
:10455000103151F8221001230022CDE9001005216D
:104560001020FDF75EFB16E00120654981F86F0021
:10457000084690F86F0091F86D206249103151F8AB
:10458000221001230022CDE9001005211020FDF7A3
:1045900048FB00E000BF00BF142007F051F9BAE764
:1045A00000BFC1E3564890F87000554991F86D205E
:1045B0005449183151F8221001230022CDE900108E
:1045C00007211020FDF72DFB45E0FDF708FB044611
:1045D0003C2C01D03E2C06D14FF0010B3C2C01D1DC
:1045E000FFF7ACFC38E0302C02D0312C2ED117E094
:1045F0000020434981F87000084690F8700091F857
:104600006D204049183151F8221001230022CDE9D4
:10461000001007211020FDF704FB18E07CE01DE0EE
:104620000120374981F87000084690F8700091F831
:104630006D203449183151F8221001230022CDE9B0
:10464000001007211020FDF7ECFA00E000BF00BFCA
:10465000142007F0F5F8B8E700BF65E3284890F8A4
:104660006D00274991F86D202649203151F822101C
:1046700001230022CDE9001009211020FDF7D1FA15
:1046800047E0FDF7ACFA04463C2C01D03E2C06D1A5
:104690004FF0010B3C2C01D1FFF750FC3AE0302CDD
:1046A00002D0312C30D115E00020154981F86D0081
:1046B000084690F86D0091F86D201249203151F8AC
:1046C000221001230022CDE9001009211020FDF75E
:1046D000A8FA1AE001200A4981F86D00084690F80E
:1046E0006D0091F86D200749203151F82210012307
:1046F0000022CDE9001009211020FDF792FA04E014
:10470000DCC1072060C2000000BF00BF142007F01A
:1047100097F8B6E700BF07E302E300200290FDF739
:1047200070FAFB4890F86D10FA4850F82100002309
:104730001A46194600901846FDF773FA0221002028
:10474000FDF763FAF448FDF7FDFCF3488079F24980
:10475000497900EB0120EE4991F86D20ED490831CF
:1047600051F8221000231A46CDE900100321102031
:10477000FDF757FAE8480079E54991F86D20E549D9
:10478000103151F8221000231A46CDE900100521FE
:104790001020FDF746FAE048C078DD4991F86D2019
:1047A000DC49183151F8221000231A46CDE90010D7
:1047B00007211020FDF735FAD7488078D44991F8C1
:1047C0006D20D449203151F8221000231A46CDE93A
:1047D000001009211020FDF724FACF484078CC4979
:1047E00091F86D20CB49283151F8221000231A4648
:1047F000CDE900100B211020FDF713FAC44890F802
:104800006D10C448383050F8210000231A460E219C
:1048100000901846FDF705FA7CE2FDF7E0F9044642
:104820003C2C01D03E2C06D14FF0010B3C2C01D189
:10483000FFF784FB6FE2A4F14100052877D2DFE89F
:1048400000F00379EBFEFD00B3488079B249497965
:1048500000EB0120AE4991F86D20AE49083151F8C6
:10486000221001230022CDE9001003211020FDF7C2
:10487000D8F90025002659E0FDF7B1F904463C2C93
:1048800001D03E2C0BD13C2C06D13012A2494871EC
:104890008E710846FDF760FC0120029048E0302C44
:1048A00041DB392C3FDC032D20DA05B90026042337
:1048B000EF2203210020FDF796F9A4F1300006EB6A
:1048C000860100EB410086B2914890F86D10914846
:1048D000083050F82100012300220321CDE9000611
:1048E0001020FDF79EF9681CC5B21CE00423EF22DE
:1048F00003210020FDF777F9A4F1300006EB8601D3
:1049000000EB410086B2824890F86D108148083073
:1049100050F82100012300220321CDE900061020D8
:10492000FDF77FF90025142006F08AFFA4E7E8E1EF
:1049300000BFE7E10623EF2205210020FDF753F930
:10494000002775480079724991F86D20714910313E
:1049500051F8221001230022CDE90010052110207A
:10496000FDF75FF9002554E0FDF739F904463C2CCA
:1049700001D03E2C0CD13C2C07D10C2F05DC012F93
:1049800003DB65480771FDF7E7FB0120029041E07A
:10499000302C3BDB392C39DCDDB900270623EF2234
:1049A00005210020FDF71FF9A4F13000C7B25848D7
:1049B00090F86D105748103050F821000123002264
:1049C0000521CDE900071020FDF72BF9681CC5B2C1
:1049D0001CE00623EF2205210020FDF704F9A4F1D5
:1049E000300007EB870100EB4100C7B2484890F860
:1049F0006D104848103050F8210001230022052195
:104A0000CDE900071020FDF70CF90025142006F071
:104A100017FFA9E700BF75E10823EF220721002057
:104A2000FDF7E1F84FF000083B48C078384991F8AD
:104A30006D203849183151F8221001E0E8E06FE0AC
:104A400001230022CDE9001007211020FDF7E9F82D
:104A500000255CE0FDF7C3F804463C2C01D03E2C59
:104A60000FD13C2C0AD1B8F11F0F07DCB8F1010FB0
:104A700004DB294880F80380FDF76EFB01200290DB
:104A80004CE0302C40DB392C3EDCEDB94FF0000817
:104A90000823EF2207210020FDF7A5F8A4F130003C
:104AA00000F0FF081A4890F86D101A48183050F8B6
:104AB0002100012300220721CDE900081020FDF785
:104AC000B0F8681CC5B21FE00823EF2207210020C0
:104AD000FDF789F8A4F1300008EB880100EB4100F4
:104AE00000F0FF080A4890F86D100A48183050F896
:104AF000210001230022072100E026E1CDE9000882
:104B00001020FDF78EF80025142006F099FEA1E78D
:104B1000DCC1072090C2000022C0072000BFF1E0E6
:104B20000A23EF2209210020FDF75DF84FF000096C
:104B300088488078884991F86D20884951F822107A
:104B400001230022CDE9001009211020FDF769F8AA
:104B5000002558E0FDF743F804463C2C01D03E2CDC
:104B60000FD13C2C0AD1B9F1170F07DCB9F1010FB5
:104B700004DB784880F80290FDF7EEFA01200290FD
:104B800044E0302C3CDB392C3ADCE5B94FF000092D
:104B90000A23EF2209210020FDF725F8A4F13000B7
:104BA00000F0FF096C4890F86D106C4850F8210037
:104BB000012300220921CDE900091020FDF731F879
:104BC000681CC5B21CE00A23EF2209210020FDF772
:104BD0000AF8A4F1300009EB890100EB410000F074
:104BE000FF095D4890F86D105C4850F821000123E2
:104BF00000220921CDE900091020FDF712F8002557
:104C0000142006F01DFEA5E796E097E000BF79E0CE
:104C10000C23EF220B210020FCF7E5FF4FF0000AE8
:104C20004C4840784C4991F86D204C49083151F876
:104C3000221001230022CDE900100B211020FCF7E7
:104C4000F0FF00255AE0FCF7CAFF04463C2C01D0D7
:104C50003E2C0CD13C2C07D1BAF13B0F04DC3D4873
:104C600080F801A0FDF778FA0120029047E0302C8F
:104C700041DB392C3FDCEDB94FF0000A0C23EF2269
:104C80000B210020FCF7AFFFA4F1300000F0FF0A79
:104C9000314890F86D103148083050F82100012358
:104CA00000220B21CDE9000A1020FCF7BAFF681C96
:104CB000C5B220E00C23EF220B210020FCF793FF6C
:104CC000A4F130000AEB8A0100EB410000F0FF0A7A
:104CD000214890F86D102148083050F82100012338
:104CE00000220B21CDE9000A102001E01CE01AE0AF
:104CF000FCF797FF0025142006F0A2FDA3E700BFF4
:104D000000E000BF00BF142006F09AFD02980128C1
:104D100000D100E081E500BFBBF1010F00D100E050
:104D2000FBE400BF00E000BF00BFBBF1010F00D1FA
:104D300004E0142006F084FDFFF76EBB00BF03986B
:104D400000B104E0142006F07BFDFFF7D9BA00BFE4
:104D5000BDE8FF9F22C00720DCC10720B0C20000D1
:104D600070B5CAB0FDF7B2FD0646314609A8FBF79B
:104D700051FC00240EE06348005D00F00F01614823
:104D8000005D001100EB800001EB400048A90855D0
:104D9000601CC4B2072CEEDBFCF733FF59486038C7
:104DA00090F86D00584951F8200000231A46194622
:104DB00000901846FCF735FF02210020FCF725FF84
:104DC0005048603890F86D104F48083050F8210076
:104DD00000231A46032100901020FCF722FF4949C6
:104DE000603991F86D204849083151F82200FBF7ED
:104DF00035FC102101EBC000C5B244A000231A46C7
:104E0000032100902846FCF70CFF3E48603890F8DC
:104E10006D103D48103050F8210000231A4605213E
:104E200000901020FCF7FDFE3649603991F86D20A6
:104E30003549103151F82200FBF710FC102101EB2D
:104E4000C000C5B29DF826019DF825119DF82421CA
:104E50009DF82331CDE90432CDE906109DF82201F9
:104E60009DF821119DF820212AA3CDE90032CDE93A
:104E7000021000231A4605212846FCF7D2FE2148DD
:104E8000603890F86D102048183050F82100002349
:104E90001A46072100901020FCF7C3FE194960391B
:104EA00091F86D201849183151F82200FBF7D6FB14
:104EB000102101EBC000C5B209A81AA100231A46AF
:104EC000CDE9001007212846FCF7ABFE0D486038FD
:104ED00090F86D100C48203050F8210000231A463D
:104EE0000E2100901846FCF79CFE07E0FCF777FEC9
:104EF0003E2800D103E0142006F0A2FCF6E700BF34
:104F00004AB070BD3CC2072038C200002056312E86
:104F100030300000256425642564256425642564FB
:104F20002564000025730000F8B500250026ECE19B
:104F30000026FCF766FEF64890F86D00F54951F83A
:104F4000200000231A46194600901846FCF769FE17
:104F500002210020FCF759FEED4890F86D10ED4855
:104F6000083050F8210000231A4603210090102039
:104F7000FCF757FEE64890F86D10E648103050F800
:104F8000210000231A46052100901020FCF749FE5D
:104F9000DF4890F86D10DF48183050F821000023EA
:104FA0001A46072100901020FCF73BFED84890F8E5
:104FB0006D10D848203050F8210000231A460921EE
:104FC00000901020FCF72DFED14890F86D10D148CC
:104FD000283050F8210000231A460E210090184670
:104FE000FCF71FFE8AE1FCF7FAFD04463E2C01D1D6
:104FF000012584E1412C06D0422C60D0432C7DD089
:10500000442C7CD116E104F06DF8FCF7FAFDC048A1
:1050100090F86D00BF4951F8200000231A46194648
:1050200000901846FCF7FDFD02210020FCF7EDFD85
:10503000B74890F86D10B748083050F821000023A9
:105040001A46032100901020FCF7EBFDB04890F8C1
:105050006D10B048103050F8210000231A46052189
:1050600000901020FCF7DDFDA94890F86D10A948CC
:10507000183050F8210000231A4607210090102014
:10508000FCF7CFFDA24890F86D10A248203050F8F0
:10509000210000231A46092100901020FCF7C1FDD1
:1050A0009B4890F86D109B48283050F82100002351
:1050B0001A460E2100901846FCF7B3FD17E104F0E4
:1050C000D5F8FCF79EFD924890F86D00914951F893
:1050D000200000231A46194600901846FCF7A1FD4F
:1050E00002210020FCF791FD894890F86D10894855
:1050F000083050F8210000231A4601E03EE0F5E0B8
:10510000032100901020FCF78CFD814890F86D1071
:105110008048103050F8210000231A4605210090E5
:105120001020FCF77EFD7A4890F86D107948183011
:1051300050F8210000231A46072100901020FCF7A8
:1051400070FD734890F86D107248203050F82100BF
:1051500000231A46092100901020FCF762FD6C48DC
:1051600090F86D106B48283050F8210000231A4643
:105170000E2100901846FCF754FDB8E004F076F8D4
:10518000FCF73FFD624890F86D00624951F820003D
:1051900000231A46194600901846FCF742FD0221EA
:1051A0000020FCF732FD5A4890F86D10594808303D
:1051B00050F8210000231A46032100901020FCF72C
:1051C00030FD534890F86D105248103050F82100CF
:1051D00000231A46052100901020FCF722FD4C48C0
:1051E00090F86D104B48183050F8210000231A46F3
:1051F000072100901020FCF714FD454890F86D1031
:105200004448203050F8210000231A46092100901C
:105210001020FCF706FD3E4890F86D103D48283000
:1052200050F8210000231A460E2100901846FCF782
:10523000F8FC5CE004F056F9FCF7E3FC344890F825
:105240006D00344951F8200000231A461946009099
:105250001846FCF7E6FC02210020FCF7D6FC2C489F
:1052600090F86D102B48083050F8210000231A46A2
:10527000032100901020FCF7D4FC254890F86D1015
:105280002448103050F8210000231A4605210090D0
:105290001020FCF7C6FC1E4890F86D101D48183011
:1052A00050F8210000231A46072100901020FCF737
:1052B000B8FC174890F86D101648203050F82100BF
:1052C00000231A46092100901020FCF7AAFC104880
:1052D00090F86D100F48283050F8210000231A462E
:1052E0000E2100901846FCF79CFC00E000BF00BFB8
:1052F000012E00D103E0142006F0A2FA73E600BFED
:1053000005B103E0142006F09BFA11E600BFF8BDDA
:10531000DCC10720D0C2000010B598B00020169064
:1053200015901490012013900020119010900F9070
:105330000D900990069002F089B800201690FCF7B5
:1053400060FCF74890F86D00F64951F82000002302
:105350001A46194600901846FCF763FC022100200B
:10536000FCF753FCEE4890F86D10EE48083050F80A
:10537000210000231A46032100900F20FCF751FC66
:10538000E74890F86D10E748103050F821000023EE
:105390001A46052100900F20FCF743FCE04890F8E6
:1053A0006D10E048183050F8210000231A460721FC
:1053B00000900F20FCF735FCD94890F86D10D948C3
:1053C000203050F8210000231A46092100900F20B8
:1053D000FCF727FCD24890F86D10D248283050F8DE
:1053E000210000231A460B2100900F20FCF719FC26
:1053F000CB4890F86D10CB48303050F82100002396
:105400001A460E2100901846FCF70BFC0020159060
:1054100002F016B8FCF7E3FB179017983E2803D16B
:105420000120169002F00EB817984138052882F036
:105430000180DFE810F00500A9033007C50AB90CA8
:105440009EE300201490FCF7DCFBB54890F86D005B
:10545000B54951F8200000231A4619460090184615
:10546000FCF7DFFB02210020FCF7CFFBAC4890F8F3
:105470006D10AD48083050F8210000231A46032172
:1054800000900F20FCF7CDFBA54890F86D10A648C2
:10549000403050F8210000231A460E210090184693
:1054A000FCF7BFFB142006F0CBF900201190109000
:1054B0000F900D905EE3FCF792FB179017983E2833
:1054C00002D10120159056E30F98E8B917984128AA
:1054D00017DB1798462814DC01200F9017981190BD
:1054E0008F4991F86D2011988F49103151F8221091
:1054F00000231A46CDE9001003210F20FCF791FB91
:1055000023E000200D9020E0179831281BDB17982E
:10551000382818DC17983038C0B21090804A92F8BA
:105520006D30DDE91010804A183252F82320002334
:10553000CDE9002002911A4603210F20FCF771FBF0
:1055400001200D9001E000200D900D98012870D1F0
:105550000AE300200D901098411E1198401E01EBA7
:10556000C000C0B212900423EF2203210020FCF7F8
:105570003AFB6B4A92F86D30DDE910016A4A20323D
:1055800052F823200023CDE9002102901A4603217E
:105590000F20FCF746FB0923EF2206210020FCF731
:1055A00022FB5F491298085C91F86D205E49283112
:1055B00051F8221000231A46CDE9001006210F20D1
:1055C000FCF72FFB564930311298085C303991F8BE
:1055D0006D205549303151F8221000231A46CDE98B
:1055E000001008210F20FCF71CFB5049129831F8DD
:1055F00010000A2190FBF1F201FB12004B490590CB
:10560000129831F810000A2190FBF1F00490444AFE
:1056100092F86D300599444A383252F8232000231D
:10562000CDE9002002911A460A210F20FCF7F9FA71
:1056300094E29BE2142006F003F900201390FCF79B
:10564000CEFA179017983E2802D10120149086E2D6
:105650001798412804D0422861D0432868D163E1DB
:105660000B23EF2206210020FCF7BDFA2C491298EB
:10567000085C91F86D202C49283151F82210012343
:105680000022CDE9001006210F20FCF7CAFA2448B9
:1056900030301299405C224991F86D202249303116
:1056A00051F8221000231A46CDE9001008210F20DE
:1056B000FCF7B7FA1D49129831F810000A2190FB47
:1056C000F1F201FB120019490590129831F810000F
:1056D0000A2190FBF1F00490114A92F86D3005997F
:1056E000114A383252F823200023CDE900200291DC
:1056F0001A460A210F20FCF794FA4FE0FCF76FFAE4
:10570000179017983C2802D017983E2811D10120F5
:10571000139017983C2801D1FEF710FC3FE040E0C1
:10572000DCC1072048C4000080C4000056C2072026
:105730000AE21798302802D031282AD114E000213B
:10574000FD4A1298115411461298085C91F86D2088
:10575000FA4951F8221001230022CDE90010062158
:105760000F20FCF75EFA15E00121F34A129811545C
:1057700011461298085C91F86D20F04951F82210FA
:1057800001230022CDE9001006210F20FCF749FA81
:1057900000E000BF00BF142006F052F8AEE700BFE3
:1057A000D3E1E54830301299405C0E900B23EF2294
:1057B00006210020FCF717FADF491298085C91F8DF
:1057C0006D20DE4951F8221000231A46CDE9001061
:1057D00006210F20FCF725FAD74830301299405C9B
:1057E000D54991F86D20D549083151F8221001238F
:1057F0000022CDE9001008210F20FCF712FAD04951
:10580000129831F810000A2190FBF1F201FB12000E
:10581000CB490590129831F810000A2190FBF1F065
:105820000490C54A92F86D300599C44A103252F876
:1058300023200023CDE9002002911A460A210F20DF
:10584000FCF7EFF96DE0FCF7CAF9179017983C28C0
:1058500002D017983E2813D10120139017983C28A6
:105860000DD1B54830301299415C0E98814206D076
:10587000B1493031129A0E988854FEF75FFB51E01F
:105880000D9820BB1798302848DD1798392845DC3B
:1058900000200E9001200D9017983038C0B20E9065
:1058A0000923EF2208210020FCF79DF9A24991F875
:1058B0006D200E98A149083151F8221001230022D1
:1058C000CDE9001008210F20FCF7ABF926E017986E
:1058D000302823DB1798392820DC00200D901798FA
:1058E00030380E9901EB810100EB4100C0B20E90FF
:1058F0000923EF2208210020FCF775F98E4991F861
:105900006D200E988D49083151F822100123002294
:10591000CDE9001008210F20FCF783F9142005F0D1
:105920008FFF90E700BF10E10B23EF22062100203C
:10593000FCF759F980491298085C91F86D207F496D
:1059400051F8221000231A46CDE9001006210F203D
:10595000FCF767F9784830301299405C764991F845
:105960006D207649083151F8221000231A46CDE9FE
:10597000001008210F20FCF754F97149129831F8F2
:1059800010000A2190FBF1F201FB12006C49059016
:10599000129831F810000A2190FBF1F00490664A49
:1059A00092F86D300599654A103252F82320012390
:1059B000CDE90020029100220A210F20FCF731F9E5
:1059C0000020099006900A900B90142005F038FFF3
:1059D000B0E0142005F034FFFCF701F91790179898
:1059E0003E2802D017983C2814D117983C280ED195
:1059F0005349129831F810100698814207D0069842
:105A000081B24F4A129822F81010FEF795F9012042
:105A1000139097E01798302863DB1798392860DCDB
:105A2000099805285EDA00200C900DE00C98C0F172
:105A300003000AA9095C0C98C0F104000AAA1154D9
:105A40000C98401CC0B20C900C980428EEDB179800
:105A50003038C0B28DF828000998401CC0B20990B7
:105A60009DF82C0042F2107148439DF82B1001EB79
:105A70004102C2EBC11100EBC1009DF82A1001EBFD
:105A8000C10202EB011100EB81009DF8291001EB2E
:105A9000810100EB41009DF82810084406900B237B
:105AA000EF220A210020FCF79EF80A210698B0FB9D
:105AB000F1F201FB120005900698B0FBF1F00490A2
:105AC0001D4A92F86D3005991C4A103252F8232075
:105AD0000123CDE90020029100220A210F20FCF7CA
